:020000040800F2
:10000000A005002001010008E70D0008710D00089F
:10001000E50D00086D01000819100008000000003F
:100020000000000000000000000000000B0E0008AF
:10003000A101000800000000090E00080D0E0008D4
:100040001B0100081B0100081B0100081B01000820
:100050001B0100081B0100081B0100081B01000810
:100060001B0100081B0100081B0100081B01000800
:100070001B0100081B010008710100087D01000838
:1000800089010008950100081B0100081B010008F8
:100090001B0100081B0100081B0100081B010008D0
:1000A0001B0100081B0100081B0100081B010008C0
:1000B0001B0100081B0100081B0100081B010008B0
:1000C0001B0100081B0100081B0100081B010008A0
:1000D0001B0100081B0100081B0100081B01000890
:1000E0001B0100081B0100081B010008DFF80CD0F1
:1000F00000F02AF80048004739100008A005002049
:100100000648804706480047FEE7FEE7FEE7FEE7B1
:10011000FEE7FEE7FEE7FEE7FEE7FEE7610E00080A
:10012000ED000008D2B201E000F8012B491EFBD21D
:1001300070470022F6E710B513460A4604461946F2
:10014000FFF7F0FF204610BD064C074D06E0E068C3
:1001500040F0010394E8070098471034AC42F6D30E
:10016000FFF7C8FFFC1000081C110008FEE70000A4
:10017000014800F017B80000D4000020014800F04A
:1001800011B8000090000020014800F00BB80000FA
:1001900018010020014800F005B800005C010020B3
:1001A000704770472DE9F05FC16B0C6801680B6800
:1001B000D0F840C0042202FA0CF2494DDFF824A125
:1001C000494E4A4FDFF828B1DFF828E122422CD00F
:1001D0005A072AD50A68920603D40A6822F0040254
:1001E0000A600168A94201D1042219E0514501D1F8
:1001F000402215E0B14202D14FF4806210E0B942D2
:1002000002D14FF480420BE0594502D14FF48022D5
:1002100006E0714502D14FF4800201E04FF08062A8
:100220002F4908394A60C16A3BE04FF0020808FADA
:100230000CF818EA040F4FF000094FF0010235D016
:100240005FEA837832D50B689B0605D40B6823F0F0
:100250000A030B6080F821200168A94201D1022223
:1002600019E0514501D1202215E0B14202D14FF4ED
:10027000007210E0B94202D14FF400520BE0594530
:1002800002D14FF4003206E0714502D14FF4001262
:1002900001E04FF00072124908394A6080F820905E
:1002A000816A00291AD0BDE8F05F0847082505FAE1
:1002B0000CF5254212D01B0710D50B6823F00E0356
:1002C0000B6090F84010C36B02FA01F15960826331
:1002D00080F8212080F82090016BE2E7BDE8F09FD4
:1002E000080002401C00024030000240440002406E
:1002F000580002406C00024030B528B308C81349CA
:1003000014221944B1FBF2F18900C16310498163E1
:10031000022141771A6843F6F0718A43D0E900144C
:100320002143D0E902452C43214304692143446918
:100330002143846921431143196000214163012253
:1003400042770177084630BD012030BDF8FFFDBF80
:10035000000002402DE9F84FDFF890A100220AF1D9
:10036000040B144601274FF00F090BF1040E00BFD8
:100370000B6807FA04F52B40AB4274D1DFF870C16B
:100380004E68A6EB0C0866452BD00DDC032E34D04E
:1003900005DC36B3012E19D0022E2FD11BE0112E11
:1003A00016D0122E2AD119E0B8F5881F19D006DC14
:1003B000B8F5803F15D0B8F5801F1FD111E0B8F512
:1003C000001F0ED0B8F5041F18D10AE0CA6815E066
:1003D000CA68121D12E0CA6808320FE0CA680C32FF
:1003E0000CE08A682AB1012A4FF0080203D0456167
:1003F00004E0042202E0056100E00022FF2B01D8A6
:10040000064601E000F104064FEA840501D9A5F192
:100410002005D6F800C009FA05F82CEA080C02FA03
:1004200005F54CEA050CC6F800C04D68ED0057D53F
:10043000304DAE6946F00106AE61AD6924F00306A9
:1004400005F0010500952C4D06EB050CDCF8085075
:10045000A6074FEA167809FA08F6B543274EB042C8
:1004600002D1002610E03BE0254EB04201D101262A
:100470000AE0244EB04201D1022605E0224EB042ED
:1004800001D1032600E0042606FA08F62E43CCF834
:1004900008604D68DAF80060ED03554601D51E434B
:1004A00000E09E432E604D68DBF80060AD035D46C2
:1004B00001D51E4300E09E432E604D68DEF80060CB
:1004C000ED02754601D51E4300E09E432E604D6847
:1004D000AD020E4D2E6801D51E4300E09E432E60F6
:1004E000641C102CFFF444AFBDE8F88F00040140F9
:1004F00000001110001002400000014000080140FF
:10050000000C014000100140001401400C040140A7
:100510000AB1016170470904FBE7000001488068E7
:1005200070470000000000200248816802781144F2
:100530008160704700000020074810B5016841F055
:1005400010010160032000F073F8002000F006F8AD
:1005500000F024F8002010BD0020024070B50D4DC1
:1005600004464FF47A712878B1FBF0F00A49096823
:10057000B1FBF0F000F0FCFA48B9102C07D20022D1
:100580002146501E00F034F800206C6070BD012040
:1005900070BD0000000000200C0000200C4808B5D1
:1005A000816941F001018161816901F001010091DE
:1005B000C16941F08051C161C06900F08050009074
:1005C0000448416821F0E06141F08061416008BD6C
:1005D000001002400000014000F01F020121914084
:1005E0004009800000F1E020C0F8001170470000D1
:1005F000F0B40E4B1B680C46C3F30223C3F107058E
:10060000042D00D90425191D072901D2002300E07B
:10061000DB1E012606FA05F1491E214099409E4045
:10062000761E16403143F0BC00F0DEBB0CED00E05E
:10063000064900F0070208684FF6FF03184040EA39
:100640000220034A10430860704700000CED00E0F0
:100650000000FA052DE9F047DFF8548105460E4603
:10066000D8F8000000F00700B0420CD2D8F8001013
:1006700021F007013143C8F80010D8F8000000F05D
:100680000700B0426FD128684A4C810712D5400755
:1006900003D5606840F4E06060602878000703D507
:1006A000606840F4605060606068A96820F0F00005
:1006B000084360602878C00744D06868012816D0D5
:1006C0002168022816D0890700294CDA616821F0D8
:1006D000030101436160FFF721FF6968074641F2AA
:1006E000883001290ED00229814618D026E02168E1
:1006F0008903E9E78901E7E7FFF710FFC11B4945D7
:1007000001D918E081466068C0F381000128F3D167
:1007100018E000BFFFF702FFC11B49450BD8606816
:10072000C0F381000228F5D10CE000BFFFF7F6FE10
:10073000C11B494502D90320BDE8F087606810F06D
:100740000C0FF3D1D8F80010404601F00701B14278
:100750000BD9016821F0070131430160006800F006
:100760000700B04201D00120E6E72878400705D510
:100770006068E96820F4E06008436060287800075A
:1007800006D56068296920F4605040EAC1006060C5
:1007900000F036F86168084AC1F30311515CC840A3
:1007A000064908600020FFF7D9FE0020C4E70000DA
:1007B0000020024000100240E41000080C0000205D
:1007C0000448054900684968044AC1F30221515CA4
:1007D000C84070470C00002000100240F4100008D0
:1007E0000448054900684968044AC1F3C221515CC4
:1007F000C84070470C00002000100240F4100008B0
:1008000012A185B00FC98DE80F0014A0144A00682A
:1008100004905168134801F00C03042B10D0082BEE
:100820000ED1C1F38343C9031DF803000AD55168F3
:1008300004AAC1F34041515C0A4A5043B0FBF1F0B5
:1008400005B0704708494843FAE700000203040571
:10085000060708090A0B0C0D0E0F1010010200000C
:100860000010024000127A0000093D002DE9F84F07
:1008700004460078B94DC00748D06868C0F38100CD
:10088000012807D06868C0F38100022809D1686890
:10089000C00306D52868800338D5606800286FD06B
:1008A00034E06068B0F5803F0BD010B1B0F5A02FF8
:1008B00011D0286820F480302860286820F4802037
:1008C00002E0286840F480302860606888B1FFF753
:1008D00025FE064609E0286840F480202860F0E7FD
:1008E000FFF71CFE801B642875D828688003F7D5A5
:1008F0000CE0FFF713FE064605E000BFFFF70EFE13
:10090000801B6428F0D828688003F7D42078944EA0
:1009100080074FF001094FF000083BD5686810F0E0
:100920000C0F07D06868C0F38100022809D16868FD
:10093000C00306D42868800714D5206901281FD178
:1009400010E02069B0B1C6F80090FFF7E7FD074658
:1009500005E000BFFFF7E2FDC01B0228C4D82868ED
:100960008007F7D52868616920F0F80040EAC100E7
:1009700028600FE0C6F80080FFF7D0FD074606E0CC
:10098000E9E000BFFFF7CAFDC01B022823D8286892
:100990008007F7D4207800072CD57248A169D9B117
:1009A000C0F80090FFF7BAFD074604E0FFF7B6FD78
:1009B000C01B02280FD8686A8007F7D56A484FF431
:1009C000FA510068B0FBF1F0009000BF0098411EA2
:1009D0000091FAD20EE080E0C0F80080FFF79EFDA3
:1009E000074604E0FFF79AFDC01B022875D8686A25
:1009F0008007F7D42078400760D5E8690027C00059
:100A000008D4E86940F08050E861E869012700F007
:100A10008050009055480168C90513D40168834689
:100A200041F480710160FFF779FD824606E000BF66
:100A3000FFF774FDA0EB0A0064284ED8DBF8000035
:100A4000C005F5D5E06801280AD008B1052813D003
:100A5000286A20F001002862286A20F0040002E0E1
:100A6000286A40F001002862E06841F2883B98B1B2
:100A7000FFF754FD82460BE0286A40F0040028622C
:100A8000EEE700BFFFF74AFDA0EB0A0159455AD82F
:100A9000286A8007F6D50CE0FFF740FD824605E0A6
:100AA000FFF73CFDA0EB0A0159454CD8286A8007A6
:100AB000F6D41FB1E86920F08050E861E06988B39E
:100AC0006968C1F38101022945D00228C6F8608017
:100AD00004D0FFF723FD044638E034E0FFF71EFDA5
:100AE000074604E0FFF71AFDC01B02282BD8286830
:100AF0008001F7D4206AB0F5803F05D16868A1680D
:100B000020F4003008436860D4E9080108436968AC
:100B100021F4741108436860C6F86090FFF7FEFC8A
:100B2000044606E015E000BFFFF7F8FC001B0228B2
:100B300009D828688001F7D50BE000BFFFF7EEFC6D
:100B4000001B022802D90320BDE8F88F2868800125
:100B5000F4D40020F8E70120F6E70000001002407E
:100B600000004242800442420C000020007000401D
:100B700010B5401EB0F1807F01D3012010BD4FF0B1
:100B8000E02460610F21601700F02EF90020A061C1
:100B900007202061002010BD70B5040004D094F837
:100BA0003900002510B106E0012070BD84F83850EE
:100BB000204600F023F8242084F839002068C1681A
:100BC00021F40051C160204600F06EF920680169EF
:100BD00021F4904101612068416921F02A014161BD
:100BE0002068C16841F40051C160E563202084F8A9
:100BF000390084F83A00002070BD00002DE9F04370
:100C000085B0002500950195029503950446DFF80F
:100C10003CC103684E48022103224E4F80264FF00C
:100C200020084FF01009634546D1836943F480439F
:100C30008361836903F480430493836943F004036D
:100C400083618069039200F0040004900802CDE9FA
:100C5000000169463846FFF77DFBF000CDE900054D
:100C6000694638460295FFF775FB3C4F3A48C7E99D
:100C70000005C7E902563D61C7E905584FF4005821
:100C80003846C7F81C80FFF737FB08B1FFF789FA31
:100C900067637C62324F3048C7E902563D611438C1
:100CA0007D61C7E90009C7E90658384647E0276370
:100CB0007C6205B0BDE8F083DFF8A8C06345F8D1D9
:100CC000C36943F40033C361C36903F4003304937D
:100CD000836943F0040383618069039200F0040098
:100CE00004900420CDE9000169463846FFF732FB45
:100CF0000820CDE90005694638460295FFF72AFB32
:100D00001548194F1430C7E90005C7E902563D617F
:100D1000C7E905583846FD61FFF7EEFA08B1FFF75D
:100D200040FA67637C62114F0B48C7E902563D6188
:100D30007D61BD612830FD61C7E900093846FFF7D4
:100D4000DBFA0028B3D0FFF72CFAB0E700380140F7
:100D500000100240000801405800024090000020AE
:100D6000D400002000440040180100205C01002055
:100D7000FEE7000070B586B0002418480094019486
:100D800002940394816941F020018161816901F03D
:100D900020010491816941F004018161816901F0C0
:100DA00004010491816941F00801816180690C4E60
:100DB00000F008004FF47055049000222946304698
:100DC000FFF7A6FB01200095CDE901040220039066
:100DD00069463046FFF7BEFA06B070BD001002400B
:100DE000000C0140FEE770470907090E002806DAEB
:100DF00000F00F0000F1E02080F8141D704700F1B2
:100E0000E02080F80014704770477047FFF78CBBF4
:100E100030B58FB028216846FFF78BF914210AA856
:100E2000FFF787F901210804CDE90010002402949E
:100E300002250491CDE907504FF4E010099068466F
:100E4000FFF714FD0F20CDE90A056802CDE90C403B
:100E500002210AA80E94FFF7FDFB0FB030BD000081
:100E60000D48016841F00101016041680B4A1140E1
:100E7000416001680A4A11400160016821F4802143
:100E80000160416821F4FE0141604FF41F0181605F
:100E90000449C00308607047001002400000FFF8DA
:100EA000FFFFF6FE08ED00E02DE9F0410446006882
:100EB0000169E26821F44051114301612169A06890
:100EC0000843616908432168CA6841F20C639A4388
:100ED0000243CA6020684169A26921F4407111434C
:100EE00041614C4920686425322688423CD1FFF795
:100EF00077FC00EBC00101EB001061688900B0FBDA
:100F0000F1F7FFF76DFC00EBC00101EB0010616829
:100F1000B0468900B0FBF1F0B0FBF5F06FF01801BE
:100F2000484307EB800106EB0110B0FBF5F000F041
:100F3000F006FFF755FC00EBC00101EB0010616803
:100F40008900B0FBF1F0B0FBF5F006EB0016FFF7FF
:100F500047FC00EBC00101EB001061688900B0FBA9
:100F6000F1F7FFF73DFC3BE0FFF72AFC00EBC00187
:100F700001EB001061688900B0FBF1F7FFF720FC7E
:100F800000EBC00101EB00106168B0468900B0FBC6
:100F9000F1F0B0FBF5F06FF01801484307EB80016A
:100FA00006EB0110B0FBF5F000F0F006FFF708FCCF
:100FB00000EBC00101EB001061688900B0FBF1F0AB
:100FC000B0FBF5F006EB0016FFF7FAFB00EBC001F3
:100FD00001EB001061688900B0FBF1F7FFF7F0FB4F
:100FE00000EBC00101EB001061688900B0FBF1F07B
:100FF000B0FBF5F06FF01801484307EB800108EBF8
:101000000110B0FBF5F0216800F00F00304488605B
:10101000BDE8F08100380140FEE702E008C8121F79
:1010200008C1002AFAD170477047002001E001C1D1
:10103000121F002AFBD1704708B5FFF77DFAFFF7B2
:10104000E7FEFFF797FE2348416941F00101416146
:101050004069002200F00100009011460E20FFF7C9
:10106000C7FA0E20FFF7B8FA002211460F20FFF74B
:10107000BFFA0F20FFF7B0FA002211461020FFF749
:10108000B7FA1020FFF7A8FA002211461120FFF747
:10109000AFFA1120FFF7A0FA10480F494FF4E135DD
:1010A00000240160C0E901540C26C460C0E9044674
:1010B0008461C461FFF770FD084809494030016050
:1010C000C0E90154C460C0E904468461C461FFF70B
:1010D00063FDFEE7001002400038014010000020D0
:1010E0000044004000000000000000000102030472
:1010F0000607080900000000010203041C11000893
:1011000000000020100000001A1000082C11000838
:1011100010000020900500002A10000801000000C7
:0C112000100000000000000000A24A04C3
:04000005080000ED02
:00000001FF
