:020000040800F2
:10000000B00F0020010100088B1C0008951A0008A1
:10001000891C00081D040008912100080000000050
:10002000000000000000000000000000AF1C0008FD
:100030007B04000800000000AD1C0008B11C000893
:100040001B0100081B0100081B0100081B01000820
:100050001B0100081B0100081B0100081B01000810
:100060001B0100081B0100081B0100081B01000800
:100070001B0100081B010008210400082D040008D2
:1000800039040008450400081B0100081B01000892
:100090001B0100081B0100081B0100081B010008D0
:1000A0001B0100081B0100081B0100081B010008C0
:1000B0001B0100085D1D00081B0100081B01000852
:1000C0001B0100081B0100081B0100081B010008A0
:1000D0001B01000879210008852100081B01000888
:1000E0001B0100081B0100081B010008DFF80CD0F1
:1000F00000F05CF900480047B1210008B00F002073
:100100000648804706480047FEE7FEE7FEE7FEE7B1
:10011000FEE7FEE7FEE7FEE7FEE7FEE7151D000847
:10012000ED000008D2B201E000F8012B491EFBD21D
:1001300070470022F6E710B513460A4604461946F2
:10014000FFF7F0FF204610BDF0B480EA0102D40FA3
:100150004200B2EB410F02D20246084611464A0065
:1001600042D0C30DDDB2C1F3C752AD1A202D35DA2E
:10017000C1F3160141F4000204B15242C5F1200658
:1001800002FA06F12A411044B3EBD05F23D0C4B188
:10019000012DA0EBC35009DCF0BC4FF0004202EA95
:1001A000C352DBB200F5000000F0D2B8400000F10D
:1001B000807000EBC350A0F1807040EAD17049001C
:1001C00009E0490841EAC071A0EBC35000F5000006
:1001D000400800EBC350F0BC00F0B1B8614201220E
:1001E00002EB4101001BF6E7F0BC704781F00041D3
:1001F000AAE780F00040A7E780EA010210B502F00C
:100200000043400022D04A001FD0010E01EB1261D2
:10021000C0F35600C2F3560240F4000042F400025C
:10022000A0FB022000047F39140400D0401C50EAD7
:10023000124001D44000491EC2B20C0604EBD0109B
:10024000401C4008802A02D003E0002010BD20F0AE
:100250000100002900DA0020184310BD30B480EA04
:10026000010202F0004530F0004221F0004013D0BE
:1002700090B1C30DD40DC2F31601C0F31600E41AF9
:1002800041F4000140F400027D34914201D3641C2A
:1002900000E04900002C02DA30BC002070474FF427
:1002A00000000023914201D3891A034340084FEA1A
:1002B0004101F7D151B1914202D14FF0004105E027
:1002C00002D24FF0010101E06FF0010103EBC450D5
:1002D000284430BC00F033B8420005D0C0F3C75208
:1002E0005242914201DC0020704700EBC150704740
:1002F000C10F80EAE0700844CA079623002100F08D
:1003000027B896230022114600F022B800F00042E0
:1003100020F00040C10DC0F3160040F400007F291A
:1003200001DA00207047962903DCC1F19601C8402C
:1003300001E096398840002AF4D0404270470029F5
:10034000A8BF7047401C490008BF20F0010070475B
:1003500010B4B0FA80FC00FA0CF050EA010404BFBB
:1003600010BC704749B1CCF1200421FA04F411FA11
:100370000CF118BF012121430843A3EB0C01CB1D55
:100380004FEA00614FEA102042BF002010BC7047C6
:1003900000EBC35010440029A4BF10BC7047401CA0
:1003A000490008BF20F0010010BC7047064C074D03
:1003B00006E0E06840F0010394E807009847103435
:1003C000AC42F6D3FFF796FE5024000870240008D4
:1003D00070B5044600688168C943C9071CD18168AB
:1003E00021F00101816000F0D5FB05460FE000BF60
:1003F00000F0D0FB401B022809D9A06A40F0100091
:10040000A062E06A40F00100E062012070BD206857
:100410008068C043C007EBD0002070BDFEE700003D
:10042000014800F0B1B90000E40A0020014800F0E2
:10043000ABB90000A00A0020014800F0A5B90000F7
:10044000280B0020014800F09FB900006C0B002031
:1004500030B590F840500124AC40C56B6C60046826
:1004600063604368102B036803D099600068C26022
:1004700030BD9A600068C16030BD704770470000B1
:10048000F8B50024009490F824202546012A12D0C3
:10049000012280F824204A681F23072A0DD206680B
:1004A000776B521E02EB820293409F430B6893408E
:1004B0001F43776319E00220F8BD06680D2A0AD2AF
:1004C000376BD21F02EB820293409F430B6893402D
:1004D0001F43376309E0F76A0D3A02EB820293404B
:1004E0009F430B6893401F43F7620A68072306681F
:1004F0000A2A0AD3F7680A3A02EB420293409F4362
:100500008B6893401F43F76008E0376902EB4202B3
:1005100093409F438B6893401F4337610A68102ABA
:1005200001D0112A20D1124B02689A4217D1936848
:100530001B0219D4936843F40003936009681029DF
:1005400012D10C490C4A0968B1FBF2F101EB8101AF
:10055000490000E0491E00910029FBD104E0816AB6
:1005600041F020018162012480F824502046F8BD2A
:10057000002401403400002040420F002DE9F041EA
:100580004FF0000704003D467ED0A06A002628B93F
:10059000E66284F82460204600F07EF82046FFF7EB
:1005A00017FFA16AC90600D420B1A06A40F010006C
:1005B000A06269E0A16A21F4885141F00201A162C0
:1005C0006268E169E3680A4347EA43010A43A168B4
:1005D0004FF48077B94209D0012907D05FF00001BC
:1005E000D4F814C0BCF1010F02D00AE03946F7E795
:1005F000F3B1A36A43F02003A362E36A43F001036B
:10060000E3622368D3F804C02CF4694C4CEA010C73
:10061000C3F804C021688B68DFF870C003EA0C03DC
:1006200013438B60A168B9420BD0012909D00CE0BB
:10063000DFF85CC0A3690CEB43330B4343F4006168
:10064000DFE7218A0D05A5F580152168CB6A23F423
:1006500070032B43CB62216889680E4B194091428D
:1006600008D1E662A16A21F0020141F00101A16214
:10067000BDE8F081A06A20F0020040F01000A06206
:10068000E06A40F00100E0620120F1E7FDF7E1FFE0
:1006900000E0FFFFFE0E1FFF00B585B000210091B6
:1006A00001910291039100680E49884218D10E48C9
:1006B000816941F400718161816901F400710491E3
:1006C000816941F0040181618069694600F004009C
:1006D00004900120009003200190044800F076F976
:1006E00005B000BD00240140001002400008014098
:1006F00010B590F821100024022903D00421816351
:1007000001243DE001680A6822F00E020A600168D7
:100710000A6822F001020A601A4A0168914201D176
:10072000012121E0174A1432914201D110211BE02E
:10073000144A2832914201D1891515E0114A3C3200
:10074000914201D189140FE00E4A5032914202D1F8
:100750004FF4803108E00B4A6432914202D14FF4E9
:10076000801101E04FF08071064A083A5160012182
:1007700080F82110002180F82010416B01B18847DA
:10078000204610BD080002402DE9F05FC16B0C68E7
:1007900001680B68D0F840C0042202FA0CF2494DFF
:1007A000DFF824A1494E4A4FDFF828B1DFF828E1ED
:1007B00022422CD05A072AD50A68920603D40A6826
:1007C00022F004020A600168A94201D1042219E062
:1007D000514501D1402215E0B14202D14FF480626F
:1007E00010E0B94202D14FF480420BE0594502D1EA
:1007F0004FF4802206E0714502D14FF4800201E0FF
:100800004FF080622F4908394A60C16A3BE04FF0DF
:10081000020808FA0CF818EA040F4FF000094FF02C
:10082000010235D05FEA837832D50B689B0605D488
:100830000B6823F00A030B6080F821200168A942AD
:1008400001D1022219E0514501D1202215E0B14227
:1008500002D14FF4007210E0B94202D14FF40052BD
:100860000BE0594502D14FF4003206E0714502D148
:100870004FF4001201E04FF00072124908394A604B
:1008800080F82090816A00291AD0BDE8F05F0847FF
:10089000082505FA0CF5254212D01B0710D50B6868
:1008A00023F00E030B6090F84010C36B02FA01F1C5
:1008B0005960826380F8212080F82090016BE2E784
:1008C000BDE8F09F080002401C00024030000240DA
:1008D00044000240580002406C00024030B528B38A
:1008E00008C8134914221944B1FBF2F18900C1630D
:1008F00010498163022141771A6843F6F0718A43F7
:10090000D0E900142143D0E902452C432143046976
:100910002143446921438469214311431960002123
:100920004163012242770177084630BD012030BD86
:10093000F8FFFDBF0000024070B5044690F82000AB
:10094000002501280CD0012084F8200094F82160B3
:100950000020012E06D084F820000225284670BD14
:10096000022070BD022684F82160A063206806681A
:1009700026F0010606602046FFF76AFDE06A0028BF
:100980002068016802D041F00E0106E021F0040168
:1009900001602068016841F00A0101602068016877
:1009A00041F001010160D9E770B5044600F0F2F8AA
:1009B0000546601C02D004480078044400F0EAF8C0
:1009C000401BA042FAD370BD280000202DE9F84F4B
:1009D000DFF890A100220AF1040B144601274FF022
:1009E0000F090BF1040E00BF0B6807FA04F52B404A
:1009F000AB4274D1DFF870C14E68A6EB0C086645B7
:100A00002BD00DDC032E34D005DC36B3012E19D0EB
:100A1000022E2FD11BE0112E16D0122E2AD119E052
:100A2000B8F5881F19D006DCB8F5803F15D0B8F5A9
:100A3000801F1FD111E0B8F5001F0ED0B8F5041FBC
:100A400018D10AE0CA6815E0CA68121D12E0CA6827
:100A500008320FE0CA680C320CE08A682AB1012A19
:100A60004FF0080203D0456104E0042202E0056172
:100A700000E00022FF2B01D8064601E000F1040649
:100A80004FEA840501D9A5F12005D6F800C009FA7E
:100A900005F82CEA080C02FA05F54CEA050CC6F834
:100AA00000C04D68ED0057D5304DAE6946F00106E7
:100AB000AE61AD6924F0030605F0010500952C4DEB
:100AC00006EB050CDCF80850A6074FEA167809FA81
:100AD00008F6B543274EB04202D1002610E03BE0B5
:100AE000254EB04201D101260AE0244EB04201D188
:100AF000022605E0224EB04201D1032600E0042682
:100B000006FA08F62E43CCF808604D68DAF8006063
:100B1000ED03554601D51E4300E09E432E604D680F
:100B2000DBF80060AD035D4601D51E4300E09E4347
:100B30002E604D68DEF80060ED02754601D51E435B
:100B400000E09E432E604D68AD020E4D2E6801D52B
:100B50001E4300E09E432E60641C102CFFF444AF43
:100B6000BDE8F88F000401400000111000100240A1
:100B70000000014000080140000C0140001001404D
:100B8000001401400C0401400AB1016170470904DE
:100B9000FBE7000001488068704700002800002043
:100BA0000248816802781144816070472800002063
:100BB000074810B5016841F010010160032000F002
:100BC00073F8002000F006F800F024F8002010BDB3
:100BD0000020024070B50D4D04464FF47A7128781C
:100BE000B1FBF0F00A490968B1FBF0F000F072FBCC
:100BF00048B9102C07D200222146501E00F034F8CC
:100C000000206C6070BD012070BD00002800002035
:100C1000340000200C4808B5816941F00101816170
:100C2000816901F001010091C16941F08051C16108
:100C3000C06900F0805000900448416821F0E061F4
:100C400041F00071416008BD001002400000014009
:100C500000F01F02012191404009800000F1E020D6
:100C6000C0F8001170470000F0B40E4B1B680C4632
:100C7000C3F30223C3F10705042D00D90425191D70
:100C8000072901D2002300E0DB1E012606FA05F148
:100C9000491E214099409E40761E16403143F0BCCB
:100CA00000F0F4BF0CED00E0064900F00702086810
:100CB0004FF6FF03184040EA0220034A1043086041
:100CC000704700000CED00E00000FA052DE9F84344
:100CD00005460078354CC00754D0E0690026C000B6
:100CE00008D4E06940F08050E061E069012600F03E
:100CF000805000902E480168C90512D401688046D2
:100D000041F480710160FFF745FF074605E000BF31
:100D1000FFF740FFC01B642823D8D8F80000C005A7
:100D2000F6D5206A10F4407021D0A98801F44071F2
:100D300081421CD0206A1F49012220F440700A60C1
:100D400000220A602062C00711D0FFF723FF074688
:100D500041F2883808E000BFFFF71CFFC11B414586
:100D600002D90320BDE8F883206A8007F4D5206A01
:100D7000696820F44070084320621EB1E06920F0E9
:100D80008050E0612878800705D56068A96820F464
:100D90004040084360602878C00605D56068E9686F
:100DA00020F48000084360600020DBE70010024070
:100DB00000700040400442422DE9F047DFF85481C2
:100DC00005460E46D8F8000000F00700B0420CD2ED
:100DD000D8F8001021F007013143C8F80010D8F806
:100DE000000000F00700B0426FD128684A4C81072C
:100DF00012D5400703D5606840F4E0606060287851
:100E0000000703D5606840F4605060606068A968BE
:100E100020F0F000084360602878C00744D068687C
:100E2000012816D02168022816D0890700294CDA3B
:100E3000616821F0030101436160FFF7ABFE69685F
:100E4000074641F2883001290ED00229814618D088
:100E500026E021688903E9E78901E7E7FFF79AFEC1
:100E6000C11B494501D918E081466068C0F3810083
:100E70000128F3D118E000BFFFF78CFEC11B4945E4
:100E80000BD86068C0F381000228F5D10CE000BFE8
:100E9000FFF780FEC11B494502D90320BDE8F0875A
:100EA000606810F00C0FF3D1D8F80010404601F044
:100EB0000701B1420BD9016821F0070131430160FC
:100EC000006800F00700B04201D00120E6E7287872
:100ED000400705D56068E96820F4E0600843606079
:100EE0002878000706D56068296920F4605040EA38
:100EF000C100606000F036F86168084AC1F3031170
:100F0000515CC840064908600020FFF763FE0020DE
:100F1000C4E700000020024000100240382400080E
:100F2000340000200448054900684968044AC1F3B8
:100F30000221515CC840704734000020001002407C
:100F4000482400080448054900684968044AC1F378
:100F5000C221515CC840704734000020001002409C
:100F60004824000812A185B00FC98DE80F0014A015
:100F7000144A006804905168134801F00C03042BD4
:100F800010D0082B0ED1C1F38343C9031DF8030011
:100F90000AD5516804AAC1F34041515C0A4A504342
:100FA000B0FBF1F005B0704708494843FAE700008C
:100FB00002030405060708090A0B0C0D0E0F10109A
:100FC000010200000010024000127A0000093D00FA
:100FD0002DE9F84F04460078B94DC00748D068683D
:100FE000C0F38100012807D06868C0F3810002289F
:100FF00009D16868C00306D52868800338D56068C1
:1010000000286FD034E06068B0F5803F0BD010B19D
:10101000B0F5A02F11D0286820F48030286028680F
:1010200020F4802002E0286840F480302860606866
:1010300088B1FFF7AFFD064609E0286840F480203C
:101040002860F0E7FFF7A6FD801B642875D82868A4
:101050008003F7D50CE0FFF79DFD064605E000BFD5
:10106000FFF798FD801B6428F0D828688003F7D428
:101070002078944E80074FF001094FF000083BD5CF
:10108000686810F00C0F07D06868C0F38100022870
:1010900009D16868C00306D42868800714D5206980
:1010A00001281FD110E02069B0B1C6F80090FFF709
:1010B00071FD074605E000BFFFF76CFDC01B02286D
:1010C000C4D828688007F7D52868616920F0F8003F
:1010D00040EAC10028600FE0C6F80080FFF75AFD23
:1010E000074606E0E9E000BFFFF754FDC01B0228F9
:1010F00023D828688007F7D4207800072CD57248B9
:10110000A169D9B1C0F80090FFF744FD074604E09B
:10111000FFF740FDC01B02280FD8686A8007F7D58B
:101120006A484FF4FA510068B0FBF1F0009000BF3C
:101130000098411E0091FAD20EE080E0C0F80080D5
:10114000FFF728FD074604E0FFF724FDC01B022837
:1011500075D8686A8007F7D42078400760D5E869B9
:101160000027C00008D4E86940F08050E861E869D1
:10117000012700F08050009055480168C90513D43C
:101180000168834641F480710160FFF703FD8246E8
:1011900006E000BFFFF7FEFCA0EB0A0064284ED873
:1011A000DBF80000C005F5D5E06801280AD008B1D9
:1011B000052813D0286A20F001002862286A20F050
:1011C000040002E0286A40F001002862E06841F271
:1011D000883B98B1FFF7DEFC82460BE0286A40F0BE
:1011E00004002862EEE700BFFFF7D4FCA0EB0A0181
:1011F00059455AD8286A8007F6D50CE0FFF7CAFC93
:10120000824605E0FFF7C6FCA0EB0A0159454CD821
:10121000286A8007F6D41FB1E86920F08050E861A1
:10122000E06988B36968C1F38101022945D00228C9
:10123000C6F8608004D0FFF7ADFC044638E034E027
:10124000FFF7A8FC074604E0FFF7A4FCC01B022838
:101250002BD828688001F7D4206AB0F5803F05D1EB
:101260006868A16820F4003008436860D4E9080188
:101270000843696821F4741108436860C6F86090F7
:10128000FFF788FC044606E015E000BFFFF782FC8C
:10129000001B022809D828688001F7D50BE000BFA1
:1012A000FFF778FC001B022802D90320BDE8F88F65
:1012B00028688001F4D40020F8E70120F6E7000058
:1012C00000100240000042428004424234000020EC
:1012D0000070004010B5401EB0F1807F01D30120A6
:1012E00010BD4FF0E02460610F21601700F0CEFCCC
:1012F0000020A06107202061002010BD70477047CA
:1013000030B590F83C20012A20D0012280F83C2002
:10131000022380F83D3003685C6824F070045C6050
:1013200003685C680D682C435C6003689C6824F06B
:1013300080049C6003689C6849680C439C6080F84A
:101340003D20002180F83C10084630BD022030BD11
:1013500010B5040003D094F83D0010B107E001205F
:1013600010BD002084F83C00204600F00DF802205B
:1013700084F83D00211D206800F0F6FC012084F86F
:101380003D00002010BD000008B500680B498842F0
:1013900012D10B48C16941F00201C161C06900224C
:1013A00000F00200009011461D20FFF75DFCBDE833
:1013B00008401D20FFF74CBC08BD000000040040A1
:1013C000001002400168CA6842F00102CA60006869
:1013D000016841F0010101600020704770B50446CA
:1013E00090F83C00012817D0012584F83C500220D9
:1013F00084F83D002068826822F0770222F47F4260
:1014000082600868502837D00DDC202859D005DCD0
:1014100088B3102841D151E0022070BD302853D04C
:1014200040283AD13FE060282ED070280BD0B0F58C
:10143000805F03D0B0F5005F2FD110E02068816895
:1014400021F0070115E0CB68D1E90121206800F007
:10145000C1FC2168886840F0770088601DE0CB6897
:10146000D1E90121206800F0B5FC2068816841F4D1
:101470008041816011E01EE0CA684968206800F080
:10148000BBFC5021206806E0CA684968206800F06B
:10149000C4FC6021206800F0A7FC84F83D500020C7
:1014A00084F83C0070BDCA684968206800F0A4FC5C
:1014B00040212068EFE700212068ECE71021206838
:1014C000E9E720212068E6E730212068E3E770475C
:1014D00070B50446006801694FF00005C9438907EB
:1014E00015D4C168C943890711D4E91E01610120DF
:1014F0002077206880698007204602D0FFF7E7FF49
:1015000004E000F098F8204600F096F8257720686F
:101510000169C943490717D4C168C943490713D4AE
:101520006FF004010161022020772068806910F4C7
:10153000407F204602D0FFF7CAFF04E000F07BF8AE
:10154000204600F079F8257720680169C94309072A
:1015500016D4C168C943090712D46FF008010161AC
:10156000042020772068C0698007204602D0FFF75A
:10157000AEFF04E000F05FF8204600F05DF825774C
:1015800020680169C943C90617D4C168C943C9069F
:1015900013D46FF010010161082020772068C06922
:1015A00010F4407F204602D0FFF791FF04E000F0E6
:1015B00042F8204600F040F8257720680169C943C9
:1015C000C90708D1C168C943C90704D1891E01618F
:1015D000204600F033F820680169C943090609D4A0
:1015E000C168C943090605D46FF080010161204636
:1015F000FFF784FE20680169C943490609D4C16820
:10160000C943490605D46FF040010161204600F04E
:1016100025F820680169C94389060BD4C168C9430C
:10162000890607D46FF0200101612046BDE87040B3
:10163000FFF765BE70BD70477047000005498842DE
:1016400006D10548016809B910210160491E0160F1
:1016500070470000E009002000000020704770473C
:1016600070B5026804461068D168536910F00F0F16
:1016700050D003F0010501F4907635435DD0C207E8
:1016800005D0CA0503D5E26B42F00102E2634207CE
:1016900005D5DA0703D0E26B42F00202E26382076B
:1016A00005D5DA0703D0E26B42F00402E2630207D9
:1016B00005D5DA0703D0E26B42F00802E263E26B81
:1016C000002A33D0800604D5880602D5204600F0D3
:1016D0001DFC20684069E16BC0F38010090700D44D
:1016E00028B3204600F0FBFB2068416949061AD563
:1016F000416921F040014161606BA0B11B49416328
:10170000606BFEF7F5FF002810D0606B416BBDE801
:1017100070400847830610D58B060ED52046BDE8DD
:10172000704000F0F3BB2046FFF799FF70BD2046E4
:10173000FFF795FF0020E06370BD030606D50B069A
:1017400004D52046BDE8704000F0E4BC4006F3D567
:101750004806F1D5D168204621F04001D160202112
:1017600084F8391000F095F970BD00003F1E0008A4
:1017700070B5040004D094F83900002510B106E0DB
:10178000012070BD84F83850204600F023F8242052
:1017900084F839002068C16821F40051C1602046F6
:1017A00000F000FC2068016921F49041016120688B
:1017B000416921F02A0141612068C16841F400516A
:1017C000C160E563202084F8390084F83A000020E5
:1017D00070BD00002DE9F04385B00025009501950E
:1017E000029503950446DFF868C103685948022151
:1017F0000322594F80264FF020084FF0100963450F
:101800004FD1836943F480438361836903F4804348
:101810000493836943F0040383618069039200F0B9
:10182000040004900802CDE9000169463846FFF73C
:10183000CDF8F000CDE90005694638460295FFF77E
:10184000C5F8474F4548C7E90005C7E902563D615D
:10185000C7E905584FF440583846C7F81C80FFF7D1
:101860003DF808B1FEF70AFE67637C623C4F3B48D7
:1018700044371438C7E902563D617D61C7E9000964
:10188000C7E906583846FFF729F808B1FEF7F6FD14
:1018900027630022114625207C62FFF7E5F9252009
:1018A00051E0DFF8C0C063454FD1C36943F4003352
:1018B000C361C36903F400330493836943F00403F1
:1018C00083618069039200F0040004900420CDE954
:1018D000000169463846FFF779F80820CDE9000590
:1018E000694638460295FFF771F81D4F1B48883747
:1018F0001430C7E90005C7E902563D61C7E905583C
:101900003846FD61FEF7EAFF08B1FEF7B7FD6763F1
:101910007C62134F1148CC372830C7E902563D612D
:101920007D61BD61FD61C7E900093846FEF7D6FF5C
:1019300008B1FEF7A3FD27630022114626207C6232
:10194000FFF792F92620FFF783F905B0BDE8F08391
:1019500000380140001002400008014058000240D9
:10196000A00A002000440040F8B5044690F83A0070
:1019700020283CD1C1B3BAB394F83800012836D03E
:10198000012084F83800A162A2850025E5632220A9
:1019900084F83A00636B17489862636B1648D86204
:1019A000636B16481863606B134645630846666BA5
:1019B000216802463046091DFEF7BEFF2068016817
:1019C0004168009184F83850C16841F48071C16069
:1019D0002068416941F0010141612068416941F09D
:1019E000400141610020F8BDFFE70120FBE7022034
:1019F000F9E70000991E0008D51E00084F1E0008D8
:101A00002DE9F04100201D4901E0401CC0B20A1838
:101A10005278532AF9D10A5C401CC0B2552AF4D13D
:101A20000E18B6F80100FEF76CFC6FF00E07394691
:101A3000FEF752FC124D2946FEF7DEFB114CA84280
:101A4000206103DD1049FEF7D1FB2061B6F80500E7
:101A5000FEF757FC3946FEF73FFC2946FEF7CCFB64
:101A60000A49FEF7C3FBA061044AA0681832216945
:101A700042F82010401CA060BDE8F0813800002032
:101A800000003443000000200000B44300008C43F9
:101A900070477047FEE700003EB5002410480094F0
:101AA000019402948460C4600C4944610160012582
:101AB00005614FF460214460C161FEF75FFD08B12C
:101AC000FEF7DCFCCDE90045694605480294FEF7C7
:101AD000D7FC002801D0FEF7D1FC3EBD0024014018
:101AE000B0090020154808B5416941F00101416184
:101AF0004069002200F00100009011460E20FFF71F
:101B0000B3F80E20FFF7A4F8002211460F20FFF7CC
:101B1000ABF80F20FFF79CF8002211461020FFF7CA
:101B2000A3F81020FFF794F8002211461120FFF7C8
:101B30009BF8BDE808401120FFF78AB8001002406A
:101B400070B586B000241848009401940294039460
:101B5000816941F020018161816901F020010491D6
:101B6000816941F004018161816901F004010491FE
:101B7000816941F00801816180690C4E00F0080024
:101B80004FF470550490002229463046FEF7FCFFC2
:101B900001200095CDE901040220039069463046FA
:101BA000FEF714FF06B070BD00100240000C0140AB
:101BB00010B586B000241748009401940294039451
:101BC000049413490594016040F20771C0E90114BF
:101BD0000121C0E9031480218161FFF7B9FB08B13D
:101BE000FEF74CFC4FF48050009069460948FFF71F
:101BF000F5FB08B1FEF742FC049404A905480594DE
:101C0000FFF77EFB002801D0FEF738FC06B010BDC0
:101C100000040040E00900200C4810B50A490160AA
:101C20004FF461214160002181600C22C160C0E954
:101C300004128161C161FFF79BFD002803D0BDE85C
:101C40001040FEF71BBC10BD00380140200A0020E8
:101C50000C4810B50A4901604FF461214160002130
:101C600081600C22C160C0E904128161C161FFF78B
:101C70007FFD002803D0BDE81040FEF7FFBB10BD7C
:101C800000440040600A0020FEE770470907090E83
:101C9000002806DA00F00F0000F1E02080F8141DA3
:101CA000704700F1E02080F80014704770477047DB
:101CB000FEF776BF30B593B028216846FEF739FAB3
:101CC00014210AA8FEF735FA002401200F9410947D
:101CD0001194010412948DE8130004904FF4E01065
:101CE000CDE90810022507956846FFF771F90F2026
:101CF000CDE90A056802CDE90C4002210AA80E943C
:101D0000FFF75AF80FA80F951194FEF7DFFF13B0F5
:101D100030BD00000D48016841F0010101604168DB
:101D20000B4A1140416001680A4A11400160016894
:101D300021F480210160416821F4FE0141604FF4EB
:101D40001F0181600449C003086070470010024011
:101D50000000FFF8FFFFF6FE08ED00E00148FFF786
:101D6000B7BB0000E0090020F0B50268164B174C25
:101D7000174D4FF08047984205D0B84203D0A0429B
:101D800001D0A84203D122F070064A68324398423B
:101D900005D0B84203D0A04201D0A84203D122F41A
:101DA0004074CA68224322F080044A6922430260D8
:101DB0008A68C2620A688262984201D10969016335
:101DC00001214161F0BD0000002C014000040040F1
:101DD0000008004010B5846842EA032224F47F44DE
:101DE0000A432243826010BD826822F070020A43D7
:101DF00042F007018160704710B5036A046A24F05D
:101E000001040462846924F0F00444EA021423F01B
:101E10000A020A438461026210BD10B5036A23F00E
:101E2000100303628369046A23F4704343EA0232B5
:101E300024F0A00343EA01118261016210BD10B5D4
:101E4000406A0021C185C184FFF709FC10BD70B54F
:101E5000446A2068406994F83910C0F3C010002526
:101E6000212904D118B1E584204600F046F8206805
:101E7000406994F83A10C0F38010222904D118B1B7
:101E8000E585204600F02BF8E06B40F01000E063A1
:101E90002046FFF7E4FB70BD10B50146406A0968B3
:101EA0000968890613D40021C1850168CA6822F433
:101EB0008072CA6001684A6922F001024A610168C1
:101EC0004A6922F040024A61202180F83A10FFF767
:101ED00097FD10BD10B5406AFFF7DAFD10BD01682F
:101EE000CA6822F49072CA6001684A6922F001024D
:101EF0004A61202180F83A1070470168CA6822F0D0
:101F0000C002CA60202180F83910704710B590F8DF
:101F10003A10222901D0022010BD8168B1F5805FFE
:101F200011D00169002901681FD0496801F07F03C1
:101F3000816A4A1C82620B70C18D491E0904090C1A
:101F4000C18518D02BE00269816A002A02685268B4
:101F500005D0D2B20A80816A491C8162ECE7C2F3E3
:101F600008020A80816A891CF7E74A68816A4B1C6B
:101F700083620A70E0E70168CA6822F02002CA6042
:101F80000168CA6822F48072CA6001684A6922F056
:101F900001024A61202180F83A10FFF731FD00204C
:101FA00010BD00002DE9F041044600680169E268B7
:101FB00021F44051114301612169A068084361691E
:101FC00008432168CA6841F20C639A430243CA601D
:101FD00020684169A26921F44071114341614C4973
:101FE00020686425322688423CD1FEF7ABFF00EB27
:101FF000C00101EB001061688900B0FBF1F7FEF74A
:10200000A1FF00EBC00101EB00106168B046890040
:10201000B0FBF1F0B0FBF5F06FF01801484307EBAF
:10202000800106EB0110B0FBF5F000F0F006FEF7C2
:1020300089FF00EBC00101EB001061688900B0FB73
:10204000F1F0B0FBF5F006EB0016FEF77BFF00EBBE
:10205000C00101EB001061688900B0FBF1F7FEF7E9
:1020600071FF3BE0FEF75EFF00EBC00101EB0010EB
:1020700061688900B0FBF1F7FEF754FF00EBC00187
:1020800001EB00106168B0468900B0FBF1F0B0FBD5
:10209000F5F06FF01801484307EB800106EB0110E3
:1020A000B0FBF5F000F0F006FEF73CFF00EBC001DE
:1020B00001EB001061688900B0FBF1F0B0FBF5F0B6
:1020C00006EB0016FEF72EFF00EBC00101EB00103F
:1020D00061688900B0FBF1F7FEF724FF00EBC00157
:1020E00001EB001061688900B0FBF1F0B0FBF5F086
:1020F0006FF01801484307EB800108EB0110B0FBBB
:10210000F5F0216800F00F0030448860BDE8F081F0
:102110000038014090F83910212901D00220704781
:102120008168B1F5805F016A0BD04A1C02620268C7
:1021300009785160C18C491E0904090CC1840ED074
:1021400017E009880268C1F308015160016900299C
:10215000016A02D0491C0162ECE7891CFBE70168B7
:10216000CA6822F08002CA600068C16841F040017C
:10217000C1600020704700000148FFF771BA0000FD
:10218000200A00200148FFF76BBA0000600A002017
:10219000FEE702E008C8121F08C1002AFAD1704702
:1021A0007047002001E001C1121F002AFBD17047D7
:1021B000FEF7FEFCFFF77EFDFFF7C2FCFFF792FC87
:1021C000FFF72AFDFFF744FDFFF7F2FCFFF764FC81
:1021D00016224F494F48FFF7C7FB4F48FFF7F2F869
:1021E0004FF47A70FEF7E0FB4C4D4D4E4D4C4FF0E6
:1021F0001008E06810B101281CD065E0D4E9041093
:10220000FDF7F4FF484F3946FEF728F8FEF77EF851
:102210002062FEF76DF83E4918310860D4E90610D7
:10222000FDF7E4FF3946FEF719F8FEF76FF8606234
:102230000120E060206A00280ADAC0F10000606036
:1022400003E000BF00F074F860680028FAD138E0BD
:1022500037DD606003E000BF00F08CF860680028A4
:10226000FAD1D4E90410FDF7C1FFA84211DD4746B9
:10227000D4E90410FDF7BAFFA8420ADDC4F80070E3
:1022800000F078F820680128FADC0520FEF78CFBC6
:10229000EEE7D4E90410FDF7A9FFB04211D9474693
:1022A000D4E90410FDF7A2FFB0420AD9C4F80070C7
:1022B00000F03EF820680128FADC0520FEF774FBE8
:1022C000EEE7E068401CE060022819D1606A00284F
:1022D0000ADAC0F10000606003E000BF00F08CF893
:1022E00060680028FAD108E007DD606003E000BF05
:1022F00000F060F860680028FAD1E068401CE060F7
:1023000000224FF470510948FEF73EFC71E70000CF
:1023100038000020600A0020E0090020CDCC4C3EAF
:10232000CDCC4CBE000000205A65D03A000C0140D4
:1023300070B50E4D00224FF400612846FEF724FCD4
:102340000B4C291522680F2A07D00C2A0CD12846DD
:10235000BDE870400022FEF717BC01222846FEF7B8
:1023600013FC6068401E606070BD0000000C0140FE
:102370000000002070B50D4D0122D1022846FEF765
:1023800003FC0B4C291522680F2A07D00C2A0CD10C
:102390002846BDE870400022FEF7F6BB0122284621
:1023A000FEF7F2FB6068401E606070BD000C0140EB
:1023B0000000002070B50E4D00224FF40051284659
:1023C000FEF7E2FB0B4CA91422680F2A07D00C2A57
:1023D0000CD12846BDE870400022FEF7D5BB012293
:1023E0002846FEF7D1FB6068401E606070BD0000AB
:1023F000000C01400000002070B50D4D012251037A
:102400002846FEF7C1FB0B4CA91422680F2A07D0FF
:102410000C2A0CD12846BDE870400022FEF7B4BB60
:1024200001222846FEF7B0FB6068401E606070BD68
:10243000000C01400000002000000000000000002F
:10244000010203040607080900000000010203045A
:1024500070240008000000203800000092210008CD
:10246000A824000838000020780F0000A2210008EE
:102470000F0000008C3C0000000000000000000085
:10248000000000000000000000000000000000004C
:10249000000000000000000001000000100000002B
:0824A0000000000000A24A0444
:04000005080000ED02
:00000001FF
